:100000000040002011000000FD040000FD0400007D
:1000100010B501F039F900F035FC00F08FFA00005E
:1000200070B572B699221C4B1C4D1A601C4B953A48
:100030001A601C4B7C321A601B4B763A1A601B4AC2
:100040001B4B18201A6002221A4B00241A6012233C
:100050002B6001F071F8F022174B12011A60174A59
:10006000174B18491A604022174B0D201C60174B84
:100070001A6000F095FF0D2000F0BEFF144B200029
:100080001C6001F009F9112303222B60114B1A6047
:10009000114B1D321A6070BD000302403000104049
:1000A0000000044008000440000304403104000044
:1000B00008030440180304400003014040FF00808F
:1000C0000000014025130000280003400401014006
:1000D0000C02224030003040000E3F400000000083
:1000E0000000000000000000000000000000000010
:1000F0000000000000000000000000000000000000
:1001000010B5064C2378002B07D1054B002B02D0ED
:10011000044800E000BF0123237010BD4801002007
:1001200000000000FC1F0000084B10B5002B03D09E
:100130000749084800E000BF07480368002B00D1CA
:1001400010BD064B002BFBD09847F9E700000000DC
:100150004C010020FC1F0000B8000020000000003F
:1001600010B5054C200001F04FF820686368010BC2
:10017000000589B2184310BDAC010020F8B5FFF7A7
:10018000EFFF00250C0422002B00801859412B00A2
:10019000220C801A99410B04040C1C43584B594DF6
:1001A000E118594B0A091A40584B09011940584B9C
:1001B0000A43D21893082B40564D92002A4013430D
:1001C000554AAC46554E9B18554D5A085B00324077
:1001D0002B401343534A54499B18544A1F0A1B028D
:1001E0000F4013403B4307013A00F027504D3F03B7
:1001F0002B60504B174023401F434F4B4B4AFF1877
:100200003B0A3F0217400B404C4A3B439B183D4A78
:100210009F08DB43174062469B0013401F43484B37
:10022000394AFF18FB431B091340384A3F01174066
:10023000444A3B439B183A4A5F085B0037401340EF
:100240003B436B60F02307041B053B403E4F374A9E
:1002500027403B43F02707401F433C4B0002FF1859
:10026000FB433F021B0A17400B40394A3B439B1894
:100270001F09DB43244A1B011740244A13401F4334
:10028000344B204AFF18FF43BB0813406246BF00AF
:100290001740314A3B439B18214A5F085B003740B7
:1002A00013403B43AB602D4B1C40F0231B01184017
:1002B0000443E0436400400814400640284B2643B2
:1002C000F6183309F643104A360113400F4A164018
:1002D0001E43244B154AF618F34336021B0A1940F5
:1002E0003240214B0A43D218D243064993080B40AF
:1002F000614692000A401A431C4BD218EA60F8BDCE
:1003000059C9947F333333330F0F0F0FF0F0F0F0F0
:100310004E384E0ACCCCCCCCDC84235755555555A1
:10032000AAAAAAAA247BDCA8FF00FF0000FF00FF06
:10033000B4010020FFFFF0FF41BD4B3946F6AC3F52
:10034000DAE94D414299797E0FFFFFF02DB1F6B207
:10035000B2C3ED1B731F94F5DBAEE973FFF0FFFF33
:1003600038E47C2339DEC7D99A0FEC4100C1C62896
:100370000023F0B585B06946114A9A1812785A548C
:100380000133102BF7D1009B1FBA019B1EBA029BB1
:100390001DBA039B1CBAFFF7F1FE0A4B00201A6836
:1003A00097420AD15A68964207D19A68954204D179
:1003B000D868001B4342434158B2C0B205B0F0BDFB
:1003C000F0F7FF0FB401002010B590B040220B49A8
:1003D000684601F0D7F9002318006C4608495A42D4
:1003E00059180978A25C914201D00130C0B2013B9A
:1003F0001A004032F1D110B010BDC04600200000FC
:10040000FF27000010B50A2000F022FE094800F086
:1004100065F80A2000F01CFE8022074B52001A608B
:10042000064A074B1A604022064B1A6000F076FC21
:1004300010BDC046402000000003014041FF008085
:1004400000000140B000002010B500F0D1F800F02D
:10045000D1FF002811D1063000F0B4FF012000F0D8
:10046000BDFF00F0C7FF002803D100F0ABFFFFF78E
:10047000C9FF002000F0A6FF14E000F0DBFF002819
:1004800010D1063000F0BEFF012000F0C7FF00F0E1
:10049000D1FF002803D100F0B5FFFFF7B3FF002024
:1004A00000F0B0FFFFF764FF002805D0642000F0E3
:1004B000CFFD00F033FC08E0FFF786FF002801D1F4
:1004C00000F02CFC044800F009F8642000F0C0FDA6
:1004D00000F09CF8FEE7C046532000000FB400B5C2
:1004E000B5B036AA02CA02A8019201F075F902A8B5
:1004F00000F036F935B008BC04B0184710B501F06B
:1005000015F903680C2B00D1FEE7FEE7030010B5D8
:1005100080240849084A08686401C3189A1AA2424C
:1005200001DC0B6005E001F001F90C230360012000
:10053000404210BDBC00002018020020F8B5002584
:100540000F49104B01394A1C14D000221F685C6807
:100550009E68A018B24203D0B858A0500432F8E701
:100560000200DE68141AA64201D020C2FAE7103356
:100570000139E8E701F0E0F8FFF766FFFEE7C04663
:10058000010000001C210000002370B50B480C4C3A
:100590000C4D9A002100032B00D8A958013381503B
:1005A0002C2BF6D1FFF73CFD074B1A68002A00D12F
:1005B0001A608022054B92051A6070BD0000002071
:1005C000FD04000000000000B000002008ED00E085
:1005D0008021064A10B5136809060B4313600820F2
:1005E00000F00AFD00F096F810BDC046000025405E
:1005F00010B5054C2378002B03D100F01DF8012322
:100600002370FFF7E5FF10BD6401002010B508203E
:1006100000F0FCFC00F090F8054A082013685B002D
:100620005B0813600022034B1A6000F0F9FC10BD58
:1006300000002540880F254070B5002407210425BF
:100640001C4A1D4B08201A601C4B1D4A1C601D4B88
:100650001A601D4B1D4A13601D4A11601D4A063960
:1006600014601D4A11601D4A13601D4B1C601D4B18
:100670001D6000F0CBFC0321082000F09DFC1A490E
:10068000082000F08DFC194B1C60194B1C60194BA5
:100690001C60194B1C60194B1D60194B1C601A68BB
:1006A000184B1A80184B1C60184B1C60184B1C70A0
:1006B00070BDC0460C0000020000254040002540EF
:1006C00001000A0048002540070000800003254083
:1006D0000403254010032540440025400002254026
:1006E0000402254050002540E9140000880E2540F2
:1006F000C80E2540480F2540080F2540C80F25404B
:10070000880F25406C010020C8010020C401002092
:10071000CC010020F021054A13688B4360390B435C
:100720001360034B1A88034B1A60704700030240A2
:100730006C010020880F2540F021064A13688B4386
:100740001360054B1A68E423DB001340034A13804F
:100750007047C04600030240880F25406C0100200E
:1007600010B504000134631E1878002802D000F090
:10077000A1FEF7E710BD004770B506000D0014009C
:10078000002802D0002000F055FC00207519002C34
:1007900005D0013C2B191B78C018C0B2F7E770BD1B
:1007A000FF23020070B59A43C0B01300541C6A4680
:1007B000FF34D51A1E78EE540133A342FAD1C3B2E6
:1007C000D45C8C4205D0000AD15480B2110000F0F4
:1007D0003BFB40B070BD0000013810B50B2830D88D
:1007E0000902494200F002FF06080A0C0E1014121A
:1007F00016191B20174B13E0174B16E0174B0AE096
:10080000174B12E0174B0BE0174B09E0174B02E0B8
:10081000174B00E0174BC91817E0174B05E0174BB3
:10082000C9180878C0B214E0154BC9180A7848787E
:100830008C780002230418430300C8781343000691
:1008400006E0002000F0F6FB00210B78487800025B
:10085000184310BDC0FF0100C1FF0100C5FF01002A
:10086000C9FF0100D0FF0100D1FF0100D6FF010048
:10087000D2FF0100D4FF0100D8FF0100DCFF01001E
:10088000E0FF01000C4B10B51A68102313400B4A0F
:1008900000D113601368802B0DD1002402202100A9
:1008A0001460FFF799FFA04205D021000220FFF756
:1008B00093FFFFF760FF10BD54000340B00000201D
:1008C000F8B5010004000320FFF786FF21000600B1
:1008D0000420FFF781FF210007000620FFF77CFFBF
:1008E0000025012828D021000320FFF775FF0136DD
:1008F0003602F7192E0001300002B84209D20378FF
:100900005A1ED2B2FD2A00D80126ED18EDB20130F0
:10091000F3E721000120FFF75FFF6D42EBB20625F0
:10092000834209D1002E07D0044B24026042C01834
:100930000121FFF735FF00252800F8BDD1FF010098
:10094000F0B5C24CA54400F009FE62B6002700973E
:100950000197962103AC46ADFF23220049002800F1
:1009600000F004FE0028F4D12188062900D8AFE168
:100970002A780423012A5CD16E88F21D8A4200D9AC
:1009800086E0962149008A4200D981E0AA1992792D
:10099000172A4ED1F3189BB2002B08D0DCAAAC4921
:1009A000D21852181278013B801880B2F3E7AB19C5
:1009B0005A7940421B79120280B21A4308238242BC
:1009C00037D167E0342B00D0D6E0009B012B00D05C
:1009D0007EE1032E00D07BE180220021520091A80D
:1009E000802700F0D8FE7F00182191ABD819FF3185
:1009F00002ABF21EC91800F0C5FE0423F619FF333E
:100A0000B6B29E4200D01BE116228B21FF3202AB10
:100A10009B18490002AA521810781B78000218434C
:100A20008C4B0700984200D824E1FF3BFF3B00932A
:100A30000933002546A8012143702B0AC370002307
:100A400002AA06320170291D1580857089B200291D
:100A500009D0DCAC7E4E6418A419247801391B1926
:100A60009BB289B2F3E7DCA97B4C49195B420C19B4
:100A70009BB22370794C1B0A0C192370784B0735F5
:100A8000C91817230B70A9B27F3300F0A0FD60E7EF
:100A90000323CEE76B782C79180031380A282ED939
:100AA000704A1568002D26D0009A012A25D106AC7F
:100AB00002AA13725681002147AE0C22200005962F
:100AC00000F069FEA660210004A8A8472623A58897
:100AD000FF339D4202D9A368B34207D0A268002A1F
:100AE00001D1002D04D12368DBB2A3E70E23A0E7D8
:100AF0000E2315009EE705239CE7052399E700F0E8
:100B00007FFD0B001B00CFFF61FF4300CFFF4900BB
:100B10005D0061FF7B009200009B012B00D0D7E0BD
:100B2000002E00D0D4E03000FFF7CAFE434243411C
:100B30002B713300009D7DE7009B012B00D0C7E0A7
:100B4000012E00D0C4E0002C00D0C1E0464B1B6851
:100B50001B685A0CD2B2002A02D1DB03DB0D01E084
:100B600080239B002B711B0A6B71FF23AB71FE3B33
:100B7000EB71002304255DE7009B012B00D0A7E06B
:100B8000022E00D8A4E02FE7009B012B00D09FE0AD
:100B90000027DEE6009B012B00D099E02C33F519ED
:100BA000FF339D4200DD73E791ABD819320047A9AE
:100BB00000F0E8FD0023AFB21D003BE7062E00D099
:100BC00086E02A4A06AB94461000190014C814C1E6
:100BD0006246013EF6B29019A919007A0979884255
:100BE00076D1002EF5D147AA03CB03C201233700EB
:100BF0000093082533001DE7009B012B68D1032ECD
:100C000066D116228B21FF3202AB9B18490002AA43
:100C1000521816781B7836021E430E4B9E4259D945
:100C2000F63BFF3B05E70020FFF74AFE002802D114
:100C300080220F4B1A6000F095FC00F0FDF947E0B0
:100C400001230027009302333D00F3E68CFCFFFFF5
:100C5000A7FDFFFFFF010000ACFDFFFFADFDFFFFA3
:100C6000AEFDFFFF70010020C00000209C200000AE
:100C7000B0000020274B1B681A68130AD2B29BB23F
:100C8000002A01D001339BB26402381984B29C421D
:100C900014D3019B002B0BD180221900520006A80F
:100CA00000F079FD06A91C4800F0CEF8012301935D
:100CB00091A9200000F0C8F8002804D001230027E3
:100CC00000930933C0E70123070000930300BBE74B
:100CD0000423AEE680226102891909025200002035
:100CE000FFF74AFD0500002C0ED10B4B9E420BD1A5
:100CF00021000520FFF770FD21002D1A0620FFF7C7
:100D00006BFDEDB22D1AEDB26D4246AB1D710023A5
:100D100001258FE6C0000020FF01000070B5002013
:100D2000FFF7CEFD431E98410624134D40422B6829
:100D300004401A68C021C03A0020FFF71DFD6B680F
:100D40001B78181AC0B2834203D12B681B68002B92
:100D500002D1002000F06EF9084B19681A004029F2
:100D600001D0002C03D000231360FFF7E9FD80229F
:100D70001A6000F061F970BDC0000020B0000020D2
:100D800082B06A460B4B0C4900930C4B01930C4B01
:100D90001A600C4A1160C0461A68120F0F2A04D05C
:100DA0001A680020120F0A2A01D01868C0B202B0D7
:100DB0007047C046B6E900001600008074010020AC
:100DC0000800104004001040094B0A4A0A491A6002
:100DD0000A4A1160C0461A68120F0F2A04D01A6816
:100DE0000020120F0A2A01D01868C0B27047C0460E
:100DF00008001040B6E80000150000800400104014
:100E000082B06A460B4B0C4900930C4B01930C4B80
:100E10001A600C4A1160C0461A68120F0F2A04D0DB
:100E20001A680020120F0A2A01D01868C0B202B056
:100E30007047C046B6EA0000170000807401002029
:100E40000800104004001040F0B50024304BC7B03B
:100E5000029406000394984255D8A14253D08022B0
:100E600006A8520000F08EFC2A4B2B4D0493FF2362
:100E70002A492B4A04AF7B602F600A60C0462A686B
:100E80000191120F0F2A03D02A68120F0A2A01D0EB
:100E90002C681C400294029B002B36D100F0DDFA36
:100EA0000400FFF76DFF0390039B002B02D1FFF7B7
:100EB0008BFF0290029B002B16D11A4A1A4904920A
:100EC000049A0198360416430496134A2F60016071
:100ED000C0462968090F0F2903D01168090F0A2994
:100EE00001D01368DBB20293039B002B07D1FFF7FD
:100EF00087FF0390039B002B01D0039B02932000EC
:100F000000F0AFFA01E004230293029847B0F0BD6D
:100F1000FF010000B6D70000080010400400104098
:100F200004000080B6D800000500008070B5050000
:100F300000F093FA0400102D04D803210E4A136820
:100F40008B4307E0202D07D803210B4A13688B43FE
:100F500002390B4313600AE0302D05D80321064AFD
:100F600013688B430139F4E7002000F063F8200098
:100F700000F077FA70BDC04630001040024A034BC3
:100F800011680B401360704700002240FFFFFFBF55
:100F9000024B18684000C00F7047C0460000224056
:100FA0001B2800D901BE034B8000C31818681960C4
:100FB0007047C04640000020F8B504000E00032929
:100FC00000D901BE1B2C00D901BE032725003D40DE
:100FD000BD400635AF40AE4000F03FFAA408054BD7
:100FE000A400E4182368BB431E43266000F039FACE
:100FF000F8BDC04600E400E01F2318401E3B8340BC
:10100000014A13607047C04600E100E01F2318400A
:101010001E3B8340014A13607047C04680E100E0F8
:101020001F2318401E3B8340014A13607047C0468F
:1010300080E200E001BE7047034A044913689BB296
:101040000B4313607047C0460CED00E00400FA0546
:1010500070B5802504002D02064BAC4205D95868B6
:1010600000F0F2F9044BE418F6E79868604300F0EA
:10107000EBF970BDC80000200080FFFF37B500F01D
:10108000FDF8002842D000F0E8F91C21204B214A4D
:101090001B6812689B008A400B40920F1833D340A4
:1010A00080251D491D4A04000868ED0110401C4AB6
:1010B0005A435219D20B013A0243192B01D8194B4A
:1010C0000EE0194D19481818EB18A0251A3B0078A6
:1010D0001B786D031B182A43FF2B00D9FF239B05A8
:1010E0001A43134D0A602B6830200193FFF71EFF4F
:1010F0008021104AC905136814200B431360FFF7C1
:10110000A7FF019B20002B6000F0ABF937BDC04664
:10111000080F0340280003400800224000F800C0E8
:1011200040420F000000D43FAA2000004DF3FF0F03
:101130003000104000002240F7B50500183D0400C3
:10114000182D46D80126244B3700EB409F4340D151
:1011500000F083F90190FFF71BFF0097002802D0F1
:10116000FFF70CFF009607271C4E1D4A33681D49E8
:10117000BB4333601C4BE3181B78DBB213601B4A84
:101180001368BB4313601A4B0A68E31818787F236F
:101190009A43034013430B60322000F055F9182C9A
:1011A0000ED033681C3CA408BB433C401C43346055
:1011B000322000F049F93368AD08BB431D43356068
:1011C000009B012B01D1FFF759FF019800F049F96D
:1011D00000E001BEF7BDC04611111101080F034028
:1011E0000C0F0340180F03404DF3FF0F100F034087
:1011F00034F3FF0F10B5034B1B7B584300F024F969
:1012000010BDC046C8000020144B1A78144BD1B250
:1012100001601B781B020B431A000360114B1B7803
:101220001B041343104A0360127812061343036031
:101230000E4B1A780E4BD1B241601B781B020B4348
:101240001A0043600B4B1B781B0413430A4A43608C
:1012500012781206134343607047C04678F2FF0FBE
:1012600079F2FF0F7AF2FF0F7BF2FF0F7CF2FF0F94
:101270007DF2FF0F7EF2FF0F7FF2FF0F014B186828
:10128000C00F704700002240014A024B1A607047AD
:101290006588EDAC3800034070B5154D04002B682F
:1012A000144E9B0F9B07984215D0032233687C2075
:1012B000934333602B689B0F00D09030FFF79AFF69
:1012C00000F0CBF82B68A40F9B009B08A4071C43DD
:1012D0002C6000F0C6F803223368934319002B6892
:1012E0009A0F5342534101330B43336070BDC046E4
:1012F0000C0222401402224010B5040000F0ADF8A8
:101300000549064A0B681440054A134023430B6005
:101310000B6800F0A6F810BD10022240040404007F
:10132000FBFBFBFF042270B5224C2368134213D051
:1013300021490B6813420CD0204B5D6908681540A9
:10134000A84308605969914359619B68002B00D0FC
:1013500098470420FFF7D0FF80232268DB001A4261
:1013600015D015490A681A420DD0144A5569086803
:101370002B40984308605169114B0B405361D3686F
:10138000002B00D098478020C000FFF7B5FF8023D6
:101390002268DB021A420CD0074A12681A4204D0B3
:1013A000064B1B69002B00D098478020C002FFF736
:1013B000A3FF70BD10022240DC0000208C01002041
:1013C000FFFBFFFF034A044B116840020B40184328
:1013D0001060704708030440FFF1FFFF0823044931
:1013E000C0000A689A43D2B2034013430B607047AF
:1013F00000030440024B18680007C00F7047C04646
:1014000004030440034A044B116880010B40184355
:1014100010607047080004403FFEFFFF04230449AA
:1014200080000A689A43D2B2034013430B607047AE
:1014300000000440024B18684007C00F7047C046C8
:1014400004000440000000000230800803D0013096
:101450000238FCD1C046C0467047EFF3108072B628
:10146000704780F310887047084B094A1968136861
:101470000020994208D013680133412B00D10300AA
:101480000449C85C1360C0B27047C046C801002060
:10149000C4010020CD010020044B1868044B1A68D9
:1014A0001B68904200D24130C01A7047C80100202A
:1014B000C40100201F2204490B681340082BFBD0F5
:1014C000024B18607047C046080225404002254084
:1014D00070B504004518AC4204D02078FFF7EAFF4D
:1014E0000134F8E770BD0000134B70B51B68002B8A
:1014F00000D09847114B1B685B071CD520241F2088
:101500000F490B680133412B00D100230D4A1568A8
:101510000D4AAB4203D113680C4B1C7004E01268F7
:101520000B4DD2B2EA540B600A4B1B680342E8D160
:101530000422094B1A6070BD68010020CC0F2540C1
:10154000C8010020C401002040032540CC01002038
:10155000CD01002008032540C00F254010B5FFF73E
:1015600047F810BD10B5FFF751F810BDF8B50400ED
:101570000F0016000120002C28D0002926D00A25B3
:101580005D43FFF789FF002810D0FFF785FF0500B6
:10159000AE20FFF72FFEFFF77FFF8542F5D1390020
:1015A000AF4200D929003180651807E00120013DD4
:1015B000FFF74EFD002DE4D1102007E0AC4204D02F
:1015C000FFF752FF20700134F8E70020F8BD70B536
:1015D00001230C001500002805D0002903D0FFF7D7
:1015E00077FF00232C80180070BD000002B4714604
:1015F00049084900095C49008E4402BC7047C04656
:1016000003B47146490840004900095E49008E4410
:1016100003BC7047002243088B4274D303098B42FA
:101620005FD3030A8B4244D3030B8B4228D3030CB2
:101630008B420DD3FF22090212BA030C8B4202D354
:101640001212090265D0030B8B4219D300E0090A7C
:10165000C30B8B4201D3CB03C01A5241830B8B4285
:1016600001D38B03C01A5241430B8B4201D34B036E
:10167000C01A5241030B8B4201D30B03C01A5241D3
:10168000C30A8B4201D3CB02C01A5241830A8B4258
:1016900001D38B02C01A5241430A8B4201D34B0241
:1016A000C01A5241030A8B4201D30B02C01A5241A5
:1016B000CDD2C3098B4201D3CB01C01A5241830959
:1016C0008B4201D38B01C01A524143098B4201D393
:1016D0004B01C01A524103098B4201D30B01C01ABE
:1016E0005241C3088B4201D3CB00C01A5241830838
:1016F0008B4201D38B00C01A524143088B4201D365
:101700004B00C01A5241411A00D2014652411046C4
:101710007047FFE701B5002000F006F802BDC046A3
:101720000029F7D076E770477047C046014B18682C
:101730007047C046400100200E4B70B500251E00CA
:101740000D4CE41AA410A54204D0AB00F3589847FE
:101750000135F8E700F0D0FC084B00251E00084CCE
:10176000E41AA410A54204D0AB00F3589847013501
:10177000F8E770BD042100000421000004210000EE
:101780000C210000002310B59A4203D0CC5CC45455
:101790000133F9E710BD03008218934202D019709B
:1017A0000133FAE77047000030B59BB00091049117
:1017B00008496D4602910591012182244942E9813F
:1017C000A4006946AC8100F075F80023009A1370FC
:1017D0001BB030BDFFFFFF7F10B513000A000100F2
:1017E00002480068FFF7E0FF10BDC046400100203E
:1017F000F0B58E6885B007000C00039201939E42FD
:1018000043D890238A89DB001A423ED00325096918
:10181000236801985B1A029363695D43EB0F5D19BE
:10182000029B6D1001331B18AB4200D91D005305FC
:1018300010D52900380000F037FB061E14D0029A9C
:101840002169FFF79FFFA289194B134080221343A0
:10185000A38112E02A00380000F086FB061E0CD19E
:101860002169380000F0D4FA0C23402201203B60AB
:10187000A38940421343A38117E0029B2661F61817
:1018800026606561019EED1AA560019BB34200D2FE
:101890001E0032000399206800F0A5FA0020A3681A
:1018A0009B1BA36023689E19266005B0F0BDC0464F
:1018B0007FFBFFFFF0B59FB0029005938B890F006F
:1018C00016001B0610D50B69002B0DD1402100F02E
:1018D000EBFA38603861002804D10C23029A0138F1
:1018E0001360D8E040237B61002306AD6B61203399
:1018F0006B761033AB7634002378002B03D1A31B17
:10190000049312D003E0252BF9D00134F4E7A31B94
:10191000320039000298FFF76BFF431C00D1B4E09E
:101920006A69049B944663446B612378002B00D161
:10193000ABE00122002352426A6002A954325218DD
:1019400001342B60EB60AB601370AB65534E2178B4
:101950000522300000F03CFA002807D00123801B4C
:1019600083402A68013413432B60EFE72B68DA06C3
:1019700004D55322202102A8121811701A0704D589
:1019800053222B2102A81218117022782A2A03D080
:10199000099B00200A210EE0059A111D126805918D
:1019A000002A01DB099204E05242EA60022213435A
:1019B0002B6001340BE02278303A092A04D84B43DB
:1019C00001349B180120F6E7002800D00993237802
:1019D0002E2B1ED163782A2B0AD1059B02341A1DA7
:1019E0001B680592002B01DA01235B42079310E08C
:1019F00000230A201A0001346B602178303909294C
:101A000004D84243013452180123F6E7002B00D0DA
:101A10000792234E21780322300000F0D9F90028E4
:101A200006D04023801B83402A68013413432B6077
:101A3000217806221B48661C297600F0C9F9002887
:101A400012D0194B002B06D10722059B0733934375
:101A50000833059314E005AB00933A00134B2900BB
:101A6000029800E000BF07E005AB00933A000F4B7F
:101A70002900029800F08AF80390039B013304D0F8
:101A80006B69039A9B186B6135E7BB890B985B0602
:101A900001D5012040421FB0F0BDC046C320000068
:101AA000C9200000CD20000000000000F117000058
:101AB000F7B5170001938A680B6900900C009342F8
:101AC00000DA130022003B6043321278002A01D072
:101AD00001333B6023689B0602D53B6802333B60C1
:101AE000062523681D401ED0230043331B785A1E51
:101AF0009341226892061CD53020E11843310870CA
:101B000021005A1C45310978A21843320233117062
:101B10000FE022000123193201990098089EB04776
:101B2000431C0ED00135E3683A689B1A9D42F0DBF6
:101B3000DAE72200019943320098089DA847431C28
:101B400002D10120404220E006232068E1683A6883
:101B500003400025042B03D18D1AEB43DB171D40F6
:101B6000A3682269934201DD9B1AED180027BD424C
:101B70000AD0220001231A3201990098089EB0472A
:101B8000431CDED00137F2E70020FEBDF0B58BB07C
:101B900006920A0043320793059004920A7E0C00D5
:101BA000109B6E2A00D1ABE011D8632A22D009D84D
:101BB000002A00D1B5E0582A00D0C5E045310A70AE
:101BC000814A4FE0642A1DD0692A1BD0BCE0732AE9
:101BD00000D1AAE009D86F2A29D0702A00D0B3E03A
:101BE000202209680A43226037E0752A1FD0782A2C
:101BF00033D0A9E00E001A684236111D196013682F
:101C00003370A4E021681A68080606D4490604D592
:101C1000111D19600023D55E02E0111D19601568C1
:101C2000002D3BDA2D23049A6D42137036E02168B3
:101C30001A68080606D4490604D51568111D1960EE
:101C4000ADB202E0111D196015685F4B227E03934F
:101C500008276F2A1DD00A271BE022007821453271
:101C600011705A4A19680392081D226818600D689D
:101C7000100602D4500600D5ADB2D30702D52023FA
:101C80001A4322601027002D03D1202322689A4393
:101C900022602300002243331A7002E00A274A4BD5
:101CA00003936368A360002B09DB0422216891433E
:101CB0002160002D05D1049E002B11D07BE0002D6A
:101CC00079D0049E28003900FFF72AFD039B013ECE
:101CD0005B5C280033703900FFF79CFC051EF1D1D6
:101CE000082F09D12368DB0706D563682269934270
:101CF00002DC3023013E3370049B9B1B23612BE0ED
:101D000009681A68080607D4490605D5111D196027
:101D10001368A28A1A8004E0111D196013686269B1
:101D20001A600023049E236116E01A68111D1960D1
:101D3000166800216268300000F04AF8002801D0DF
:101D4000801B6060636803E0260042363270012326
:101D500023610023049A1370079B09AA00932100B2
:101D6000069B0598FFF7A4FE431C02D101204042C8
:101D700027E02369320006990598079DA847431C70
:101D8000F4D0236800259B070FD4099BE068984294
:101D900017DA180015E02200012319320699059878
:101DA000079EB047431CE1D00135E368099A9B1AAE
:101DB0009D42F0DBE9E72600039B42361B78337037
:101DC0008EE70BB0F0BDC046D4200000E520000037
:101DD000C9B28218904204D003788B4202D00130FD
:101DE000F8E70020704710B5884202D98B18984256
:101DF00001D3002305E09B1A013A08D3995C815472
:101E0000FAE7934203D0CC5CC4540133F9E710BD28
:101E100070B50500002944D00C1F2368002B00DAA0
:101E2000E418280000F0D8F81E4A13681100002BAF
:101E300002D16360146031E0A3420DD92268A0187A
:101E4000834203D118685B688218226063600C606B
:101E500024E0A24203D813005A68002AF9D11E6870
:101E60009819A0420BD12168711858181960824244
:101E700014D110685268411819605A600EE0A042EF
:101E800002D90C232B6009E021686018824203D13B
:101E9000106852684118216062605C60280000F0A0
:101EA0009CF870BDA8010020032370B5CD1C9D4394
:101EB000083506000C2D01D20C2501E0002D01DBB8
:101EC000A94202D90C23336048E0300000F084F8C6
:101ED000234B1C681A002100002913D00B685B1BE0
:101EE0000DD40B2B02D90B60CC181EE08C4202D112
:101EF000636813601AE04B6863600C0016E00C0026
:101F00004968E9E7174C2368002B03D1300000F043
:101F100051F820602900300000F04CF8431C18D024
:101F20000323C41C9C43A0420DD12560300000F067
:101F300054F8200007220B30231D9043C31A0ED003
:101F40005A42E2500BE0211A300000F033F8431CF3
:101F5000EBD10C233000336000F03FF8002070BD5F
:101F6000A8010020A4010020F8B506000C0015000F
:101F7000002904D11100FFF797FF040018E0002AA0
:101F800003D1FFF745FF2C0012E000F027F885424F
:101F90000ED929003000FFF787FF071E07D0210068
:101FA0002A00FFF7EFFB21003000FFF731FF3C0074
:101FB0002000F8BD002370B5064C05000800236022
:101FC000FEF7A4FA431C03D12368002B00D02B603A
:101FD00070BDC04610020020704770470B1F1A6882
:101FE000101F002A04DA891804390B68D018043845
:101FF00070470000002200002A00000000000000DE
:10200000F7FF7018B2C0300154144A1378184B10FF
:102010003C57F905F00038200020D80E2B053B6115
:102020000023E023FDC2F7FF7018B2C03001541541
:102030004A1D78184B1AF917F0000020D80C2D090A
:10204000626F6F746C6F6164657220737461727417
:102050000D0A0054686520626F6172642069732004
:102060006E6F74206163746976617465642C20708E
:102070006C6561736520616374697661746520695C
:102080007420776974682074686520616374697668
:10209000652E63796163640D0A000000B5116A253D
:1020A000003C0101D91F5DC38D2AEEDBC9B9AA9B93
:1020B0008E82766B60564D443B332C241D17100ADC
:1020C000044300232D302B2000686C4C00656667AC
:1020D000454647003031323334353637383941429E
:1020E0004344454600303132333435363738396170
:1020F0006263646566000000F8B5C046F8BC08BCC1
:102100009E4670472901000089050000F8B5C046C9
:10211000F8BC08BC9E467047010100003021000059
:10212000B800002090000000D00000000000000077
:102130000000000018020020F41F0000F81F00003B
:10214000010000000000E02EC05D0000180000004B
:1021500000366E01040404000000000000000000CE
:10216000000000000000000000000000000000006F
:102170000000000000000000C1200000000000007E
:10218000000000000000000000000000000000004F
:10219000000000000000000000000000000000003F
:1021A000000000000000000000000000000000002F
:1021B0000000000000000000E0000020000000001F
:1021C000000000000000000000000000000000000F
:1021D00000000000000000000000000000000000FF
:1021E00000000000000000000000000000000000EF
:1021F00000000000000000000000000000000000DF
:1022000000400020112200008D5200008D5200007D
:1022100080B5044B00AF83F3088803F00DF903F099
:102220005BF8C0460040002070B572B60024414BF8
:10223000414A1C60414BC7211A60414B414A1C6016
:10224000414B49001C60414B20251C600523136055
:102250003F4A11603F4A136012223F4B1A6003F05D
:10226000D9F8302003F0C4FBE8223C4B52011A603D
:102270003B493C4B3C481960C021890001603B4808
:1022800018603B4801603B493B4819603B490A6084
:102290003B491960F821490101603A4818603A4801
:1022A00004603A4818603A4802603A4A0D201A60C1
:1022B000394A1160394A3A491A604522394B1D6042
:1022C000394B1A60394B033A1A60394B013A1A609C
:1022D000384B06321A60384B013A1A60374B033AD2
:1022E0001A60374B01321A60364B043A1A6003F019
:1022F000C5FA0D2003F0EEFA8020334BC0051C60B8
:1023000003F0A2F80322314B01201A608022304BE7
:1023100012061A6008222F4B1A602F4B1D6000F026
:10232000BBFE62B603F008FC2C49042003F02CFC31
:1023300070BDC04600030240FF0F000000040240D1
:102340000803044000040440180304400003044050
:1023500008040440180404403000104014030140F5
:1023600045FF0080000001400803014042FF00805B
:102370000403014041FF0080100301400C030140B1
:1023800043FF008044FF00800003014040FF0080C5
:102390001803014046FF00801C03014047FF0080F6
:1023A000415700002800034048010140300101402E
:1023B0002C010140100101400C01014008010140C5
:1023C00004010140000101400C0222403000304075
:1023D00000003A4000033A40000E3F4089300000C0
:1023E00010B5064C2378002B07D1054B002B02D0EB
:1023F000044800E000BF0123237010BD400100200D
:1024000000000000BC930000044B10B5002B03D06B
:102410000349044800E000BF10BDC04600000000B2
:1024200044010020BC930000F7B500260C00154DB8
:10243000154F164B3A8019800A000100280006F05B
:10244000FBFA134B2E55DB6A98470022BB5E0F4AFE
:10245000104C0021525E200000920F492A0001F02A
:10246000C7FF20000D4902F001F80121312000F0E2
:10247000AFFA142000F07AFB3100312000F0A8FA06
:10248000F7BDC046820100205C01002080010020D1
:102490006895000004060020C8930000FA9300002D
:1024A00010B50249024801F0D0FF10BD139400009E
:1024B0000406002010B5044BDB6A98470349044822
:1024C00001F0C3FF10BDC0466895000021940000D4
:1024D000040600200123F0B5E1210024264A8BB038
:1024E0005B42009302920194244A4902244801F07D
:1024F00077FC0121322000F05DFA0621312000F046
:1025000059FA002100201F4B1F4E186059601F4BC5
:102510001F481C801F4B012583601F4B03601F4B0E
:10252000436033689847F3681D4898471D4B220065
:10253000089308230293013B2800F76900930E21BA
:102540002300079406940594049503940195B847D5
:1025500008230722019321002B002800B669099562
:1025600008940794069405950494039402940094A7
:10257000B0470BB0F0BDC046204E0000220800005E
:102580000406002050020020689500005C01002035
:102590006001002029240000A1240000B5240000CF
:1025A000C0CA8936B80B000073B5322000F044FA77
:1025B000184C194E010020600A22300001F0A6FFDD
:1025C0002168164C01291FD1312000F001FA144D69
:1025D000144A1549280002F04BFE1449300001F05E
:1025E00007FF280006F062FBA36AC1B2280001932E
:1025F0009847322000F0BAFA636B002001939847A5
:10260000636E0193984773BD0021312000F0E0F91B
:10261000EFE7C0467C01002004060020689500001A
:1026200058020020329400003494000037940000D7
:10263000C308194A1B02F0B59D18184A03269C18B6
:10264000174A9B1807221040063A8240082903D0F7
:10265000092902D1310000E002217043072686409B
:102660002F68B7430E008640380030432860D043BF
:10267000022903D119680A431A6008E01D68054061
:102680001D60002903D123681A43226002E02368F9
:1026900018402060F0BDC046080004401800044007
:1026A00000000440F8B5072100240120194B1A4E00
:1026B0001A681A4B1A601A4B1A78944228DA335D5A
:1026C000184FDD082D02ED192F680B40BC4607009E
:1026D0009F4063461F4218D001212120FFF7A8FF29
:1026E000114B1B78002B03D002211920FFF7A0FF0C
:1026F000335D0E4A9B009B5898472B681F432F6001
:1027000000F05AFA0A4B186002E0013464B2D4E7D0
:10271000F8BDC04618E000E0210400201C040020A1
:1027200060040020100004409804002020030020D2
:102730009C04002007B5684603F02EFA0098019B20
:10274000010B000589B2184303B000BDF0B58FB08E
:10275000FFF7F0FF0E04002534002B00001969413B
:10276000320C801A994100900191019B754E1C0416
:102770002200009BB4461B0C1A431000724A734F90
:10278000821813093340724E120132401343714ACA
:10279000714E9B189A083240704E9B003340134391
:1027A0006F4A704E9B185A085B0032403B401343FF
:1027B0006D4A6E4C9B186E4A1E0A1B02234016403F
:1027C0001E432B0065460695614D66490795624D8F
:1027D0000891AC46614D099766495F183F780AA990
:1027E0005F540133102BF7D10B990A9B09BA03915F
:1027F0000C991BBA09BA04910D9909BA05910021E7
:1028000002919E4200D099E0F02600995A4B0F01A8
:1028100036033E405949034033435B181F021B0AED
:102820001A403C40564B1443E418E243634692007E
:10283000A40815401C40534B2C43E218079B14017D
:102840001C40D34306991B090B404F4923435B1897
:102850003E495F008C4609995B080F4008993E4E3F
:102860000B401F43039B3A4D364A3E4C9F4265D175
:10287000009B00991F04F0231B051F40434B03409E
:102880001F43F0230B4042493B435B181F02DB43CD
:1028900036491B0A0F4036490B401F433D4B2F4919
:1028A000FF18FB433F091B012B4017401F433A4BC6
:1028B000FF18FF43BB08BF000F40334037493B437D
:1028C0005B1861465F000F405B08049923403B435F
:1028D0008B4233D1030032490B401900009B180290
:1028E000F0231B01184001434F00C94363464908C8
:1028F0001F4021402B4B0F43FF18FB433F091B0197
:102900001D403A40284B2A43D21818491302194057
:10291000D343174A1B0A1340244A0B439B18DB433B
:102920000E4A98089B00134030401843204BC018B3
:10293000059BC01A4342584143B202936B46187A32
:102940000FB0F0BD0F0F0F0F59C9947FAAAAAAAA02
:10295000F0F0F0F04E384E0A33333333CCCCCCCCDD
:10296000DC84235755555555247BDCA800FF00FF18
:10297000FF00FF00F0F7FF0FFFFFF0FF41BD4B39F5
:1029800046F6AC3FDAE94D414299797E0FFFFFF000
:102990002DB1F6B2B2C3ED1B731F94F5DBAEE97334
:1029A000FFF0FFFF38E47C2339DEC7D99A0FEC41F2
:1029B00000C1C62870B504000D00FFF7C7FE00284F
:1029C00000D1FEE729002000FFF732FE70BD0000B5
:1029D00070B504000D00322802D0342809D014E06C
:1029E000124B1A78002A10D000221A7001F0BEFC97
:1029F00007E00F4B1A78002A07D000221A7001F066
:102A0000CFFC06212000FFF7D5FFE308094A1B028F
:102A10009B1807221440063AA2401968002D01D0E5
:102A20000A4301E091430A001A6070BD610400206E
:102A300020040020000004400723064A0340C00889
:102A4000000280180268012098401040D840C0B2AF
:102A50007047C04604000440C308054A1B029B1887
:102A600007221040063A824019680A431A607047EC
:102A700010000440F8B505000F001400FFF766FED3
:102A8000002800D1FEE707262800FFF7E5FF032115
:102A90002E407600B140B440114AEB081B029B184F
:102AA0001A68A4B28A43002114430E4A1C60AB008A
:102AB0009F500D4B0D481A78CCB2A24205D94C1C40
:102AC000415CA94204D02100F6E7855401321A7016
:102AD0001B78012B02D1064801F0F6FDF8BDC04677
:102AE0000C0004402003002060040020210400208A
:102AF000A5260000F7B50022184D0400184F2878CD
:102B00000195D3B283421FD2511CBA5CA24201D0BC
:102B10000A00F6E71349E2081202521807210325BA
:102B2000214049008D401668AE431660FA1852786D
:102B3000FA540133DBB29842F8D80021019B0138E6
:102B4000094A1870A3009950019B1B78002B01D1F2
:102B500001F0CCFD2000FFF77FFFF7BD60040020EF
:102B6000210400200C0004402003002010B502F0D6
:102B7000C7FE10BD10B500F01FF810BD70B50220E3
:102B800002F06EFD03000021054A064C1568581B33
:102B9000256866684019714113602060616070BDEE
:102BA00080040020780400200023C160036043609B
:102BB0000372036170470000F8B502F0DEFB050008
:102BC000022002F04DFD030000210D4A0D4C166855
:102BD0001360981B266867688019794120606160DE
:102BE000280002F0CEFB20686168FA2200239200E0
:102BF00003F008FE4B04C00B1843C90BF8BDC046D8
:102C0000800400207804002010B5FFF7D5FF034BA7
:102C10001A685B68801A994110BDC0467004002094
:102C2000012370B5037205000468FFF7EDFF03226E
:102C3000002380185941002901D1A04203D9FFF790
:102C4000E3FF033028602C68044800F011F92000ED
:102C5000032C00D2032000F013F970BDB52D000045
:102C6000054B10B51A68002A01D0002111720261CB
:102C70001860FFF7D5FF10BD8404002070B50A4C22
:102C80002568FFF799FF03C40021084B401B1B6810
:102C9000002B08D01A68904202D2121A1A6000E083
:102CA00019601B69F4E770BD7004002084040020E3
:102CB000F8B5040002F004F90500002C15D01D4FF2
:102CC0003A681300002B03D09C420ED01B69F9E731
:102CD000616823722160002A0BD1FFF76DFF164B4C
:102CE000186059602000FFF7BBFF280002F0ECF8E5
:102CF000F8BDFFF789FF23680600C2183B68226011
:102D000019688A4205D2FFF7B9FF23689E1B266027
:102D1000E8E719691869002808D00868824202D9D2
:102D20000B000969F6E71C612161DEE71C61206187
:102D3000DBE7C0468404002070040020F8B50400DE
:102D400002F0BEF8144D06002B68002B20D0002C9A
:102D50001ED0A34213D1237A2769002B0CD0002F59
:102D600008D0002323722F60FFF788FF2868FFF741
:102D700057FF0BE000F01CF92F6007E013001A6901
:102D8000002A03D09442F9D122691A6100232372E8
:102D9000300002F099F8F8BD8404002070B50C00F2
:102DA0000500FFF7CBFF022C00D803242C606C60D9
:102DB00070BD000070B5FFF761FF134C236825005C
:102DC000002B03D12868002817D11BE01E68FFF7ED
:102DD0001BFF00290AD025682B692360EB68002BB4
:102DE00000D1FEE7984700232B72E4E7B042F2D807
:102DF00023681B68002BEED0E4E7037A002B01D197
:102E0000FFF70EFF70BDC0468404002010B5FFF729
:102E1000D3FE034B1A685B688018594110BDC04649
:102E20006804002070B50D000400FFF7EFFF001BE1
:102E3000A94170BD10B580246402200002F09CFB03
:102E40008020000302F0FAFC1F2002F0F3FB074988
:102E5000022002F037FC022002F044FC0121022093
:102E600002F034FB200002F06BFB10BD7D2B000054
:102E7000002802D0014A1060012070478804002019
:102E800070B50500002002F047FC012002F044FC70
:102E90000220FA26FF3002F06FFB264802F0CEFC3B
:102EA000F600254BB54221D9012431001C702800C1
:102EB00003F044FC214B00201960214902F092FBF1
:102EC0003100280003F0B4FB0100200002F08AFB6F
:102ED0000021080002F0FAFA2100200002F0F6FAC0
:102EE000200002F0FFFB0220FF3020E0FA20002447
:102EF00080001C70684305F0B3FC0022114B04F005
:102F000045FA03F0A7FC411E200002F06BFB2100F4
:102F1000012002F067FB0121200002F0D7FA210016
:102F2000012002F0D3FA200002F0DCFB012002F0C5
:102F300007FB70BD080800008C04002090040020EE
:102F4000FFFF000080843E40022010B5FF3002F0F9
:102F500013FB134802F072FC002002F0DDFB012499
:102F6000012002F0D9FB80200E4AC00513682343DC
:102F7000136002F069FA082002F01AFB2100002019
:102F800002F0C4FA2100200002F0C0FA0649002035
:102F900002F098FB0549200002F094FB10BDC046EA
:102FA0000808000000002240C92F0000E52F0000A3
:102FB000022010B5FF3002F0DFFA024802F03EFCBA
:102FC00010BDC0460808000010B5002002F0A4FBA8
:102FD000FFF7EEFF024B1B68002B00D0984710BD97
:102FE00088040020094B10B51868002802D0FFF7AC
:102FF00047FF09E0012002F08FFBFFF7D9FF044BE8
:103000001B68002B00D0984710BDC04690040020DC
:10301000880400208021064A10B5136809060B4376
:103020001360082002F056FC02F072FF10BDC0468B
:1030300000002540FF21124A10B5136818208B4369
:1030400066390B4313609639FFF7B4FC022119204F
:10305000FFF7B0FC00211820FFF7BAFC012119206E
:10306000FFF7B6FC074C2378002B07D102F0E2FEF5
:1030700001232370FFF7CEFF02F062FE10BDC046B1
:103080000003024098040020024A136801331360D1
:103090007047C0469C040020054A1368002803D0EE
:1030A000802109060B4301E05B005B081360704759
:1030B00080033A400120704710B5002001F0BAFBB0
:1030C00010BD0000144B10B51860144801F0CCFC82
:1030D000002001F0AFFB012001F03FFC00210800BF
:1030E00001F032FE0421002001F018FD0023190038
:1030F00018001A0001F082FC09490A48FFF754FD44
:1031000009490A48FFF750FD09480A49FFF74CFDF5
:103110000020094B187010BDB80400207D35000058
:10312000BD320000F0050020DD320000D80500208F
:10313000A0040020FD320000B404002010B501F00E
:10314000DBFAC31EDBB202000020022B02D80630DD
:10315000801AC0B210BD10B501F0ACFC10BD10B5A6
:1031600001F0FCFD00B210BD07B56B46D871073306
:10317000180001F0E7FA07BD002370B50C001049F4
:103180001A000500080001F039FC01F0C1FC0D4BEC
:10319000012813D17F331C700B4801F069FD002218
:1031A0002800210001F06CFB084C094B2000196835
:1031B000FFF7F4FD2000FFF77BFD70BD7833EAE7F1
:1031C000010200004C060020BC060020F005002093
:1031D000EC05002010B5042001F014FB0220FFF7DD
:1031E000C5FC10BD10B501F07DFB10BD37B5164B09
:1031F0000424A8331D781235EDB20F2809D8013CFC
:10320000072806D8013C032803D8013C8442A44186
:103210006442C021002349001A00080001F0EEFBBF
:1032200000230A2229000093200001F075FD01F01F
:103230006FFBFA21054CC9002000FFF7AFFD20000D
:10324000FFF736FD37BDC0464C060020A004002025
:1032500070B50D00140001F02DFC280001F018F8E5
:1032600001F062FB200005F0CBFA0022064B04F0CF
:1032700093FC03F0EFFA054C01002000FFF78EFDF0
:103280002000FFF715FD70BD00408F40D8050020DD
:1032900010B500F05FFF10BD10B500F097FF10BD36
:1032A00010B500F029FF10BD10B500F05DFF10BD96
:1032B00010B500F07FFE033010BD0000002010B5F7
:1032C00001F020FA044B1B68002B03D05B68002B35
:1032D00000D0984710BDC046B8040020002010B5AB
:1032E00001F010FA044B1B68002B03D0DB68002BA5
:1032F00000D0984710BDC046B8040020002010B58B
:1033000001F000FA044B1B68002B04D09B69002BD2
:1033100001D00020984710BDB804002010B5002847
:1033200011D00A4A012311001468A04206D3946800
:10333000A04203D2DB00CB18187910BD013308324C
:10334000162BF1D1FEE71F20F7E7C046B894000026
:1033500010B50A4B012807D1094A7F33117009487B
:10336000197001F085FC10BD1A0077321278012A1D
:10337000F9D1034A78331170F1E7C0464C060020BA
:10338000BC000020BC0600200023104970B51A00C4
:103390000400080001F032FB002C07D00C4D210086
:1033A0002800FFF7FBFC2800FFF782FC094B1B7885
:1033B000002B06D0002001F0C7FA074801F068FA98
:1033C00070BD064B18688001F8E7C0464202000055
:1033D000D8050020D1050020FFFFFF00D405002004
:1033E0000023022170B51A000400080001F006FB5A
:1033F000002C07D0094D21002800FFF7CFFC280042
:10340000FFF756FC064B1B78002B03D0054801F054
:1034100051FA70BD044B18688001F8E7D805002008
:10342000D1050020FFFFFF00D4050020F0B54B4C74
:1034300085B02378002B72D0002500F032FF257074
:1034400000F031FF01F0EAFA0400454801F00CFDFC
:10345000E3070DD54348FFF771FC280001F052F94E
:10346000414B1B68AB4203D01B68AB4200D098476E
:10347000402323400193A30753D53C48FFF75EFC4C
:1034800002AB3B4EDF1DFF223900300001F098FCFB
:10349000384D280001F0AAFC334B1B68002B40D0AC
:1034A0009B689C46002B3CD0019B002B3CD10D23FC
:1034B0000C22EB56AA56300065463978A8472306F9
:1034C0000CD52D48FFF73AFC274B1B68002B05D085
:1034D0009B69002B02D0E005C00F9847A30511D5CA
:1034E00001F00AF9042828D11E48FFF727FC002024
:1034F00001F008F91C4B1B68002B03D05B68002B04
:1035000000D09847A3060AD51848FFF717FC164BBA
:103510001B68002B03D0DB68002B00D0984705B058
:10352000F0BD019B002BCAD00F4B1B68002BC6D0EF
:103530001B69002BC3D09847C1E701F0DDF80528CF
:10354000E0D10A48FFF7FAFB002001F0DBF8064B58
:103550001B68002BD6D0DB68D1E7C046B40400203E
:10356000FFFF0000F0050020B8040020D80500206F
:10357000D2040020BC040020A0040020012210B5C9
:10358000024B1A70FFF752FF10BDC046B404002072
:103590000C4B10B504001870587000F017F8002C90
:1035A00009D0E8203421C00000F0D4FD44210648B1
:1035B00000F0D0FD10BDE8201421C00000F0CAFDCD
:1035C0002421F4E7D004002041070000012010B5B9
:1035D00001F090FA044B18785A78824202D0587061
:1035E000FFF7D6FF10BDC046D004002010B501285B
:1035F00006D0002001F07EFA0022034B5A7010BD65
:10360000FFF7E4FFFBE7C046D0040020F8B50C004C
:1036100016001D00FFF7EAFF200001F04BFA002022
:10362000FFF7B2FE0120FFF7A1FAFFF7EFFB07005B
:10363000002438002100FFF7F5FB8C4201D18542C0
:1036400001D8012406E001F089FB00B28642EFDADE
:103650000028EDD0FFF7BEFD2000F8BD70B50024B6
:10366000FFF7B4FF002001F013F925000126300018
:10367000FFF77CFA01F072FB03003340A3400134F2
:103680001D43202CF3D101F0FDFB4519FFF7A2FDEE
:10369000280070BD70B50A280DD8084BC000181856
:1036A000046845680120884005F0AAF82B00220034
:1036B00003F06CFE70BD00240025F3E76094000069
:1036C000F0B589B0150013AA127801910392212256
:1036D00006A95218D27F0493059225220FAB1B88AE
:1036E0005218009310AB1B88D17F029311AB1F7847
:1036F0006A4A12AB06001B781170002F00D1FF231D
:10370000674A1370002E04D0012E00D175E009B075
:10371000F0BD300001F00FF9624C0B22230098330A
:103720001E7023009C331D6023000198A4331A707F
:10373000FFF7F4FD2300A5331870230070331E70CB
:10374000009B5749DA00230072331A802300564A3F
:1037500074331A80230076331E70012223005740F1
:1037600077331F7023000978783319700399F22397
:10377000002900D1130022007932137023000122A6
:103780007A3398341A70FFF797FC2078431E9841DB
:10379000C0B2FFF72BFF200001F01AFA434801F0F6
:1037A00067FA0822424906A805F046F906A800F083
:1037B000C9FF404801F008F8280005F051F8020060
:1037C0000B0000203C4903F0E1FD00223B4B04F0DC
:1037D000E3F9040002980D0005F012F802000B0056
:1037E0002000290004F0D8F9354B002204F0D4F968
:1037F00003F030F8334B186089E7002001F09BF8A4
:103800006B46187A01F0A0F8264CEDB223009833ED
:103810001E702300A8331D70019A2B4B2900985C61
:103820002300A93318702300049AAA331A70FFF7F3
:1038300031FF264B264A02F0BBFF431E984123006E
:10384000AB3318702300053D70331E70012D21D855
:10385000009B0B2B1ED823000C227C331A802300E4
:103860007E331F7023000E4A7F3312781A702300B4
:10387000039A80331A70059B81342370FFF7A6FEEC
:10388000144801F0A5F9094801F0F2F90D4B124A6C
:103890001A603CE72300009A7C33DFE7D105002063
:1038A000BC0000204C06002004180000BC060020CC
:1038B0004A940000FF0100000000F03F000020409B
:1038C00000408F40D40500205294000047613040F2
:1038D000E17A14AEE4060020FFFF0000F0B587B0E7
:1038E000050018000CAB170004CB029119780EAB41
:1038F0001E880FAB1B78009310AB1B78019313ABA2
:103900001B780393002D09D0012D55D0029800F0AB
:10391000BFFC504B149A1A6007B0F0BD4E4CF60035
:10392000230098331D7023009C331A6023000B2260
:10393000A4331A70FFF7F2FC2300A533187023009C
:10394000A0331F60230070331D70230072331E806C
:103950002300424A74331A80230076331D700122FB
:10396000230000997733514019700199F2230029FF
:1039700000D11300220079321370230001227A3320
:1039800098341A70FFF798FB2078431E9841C0B214
:10399000FFF72CFE200001F01BF9314801F068F917
:1039A0000822304904A805F047F804A800F0CAFE30
:1039B0002D4800F009FFA9E7274CD7B22300983320
:1039C0001D702300A8331F70284B185C2300A933F7
:1039D00018702300AA3319703900FFF75BFE244BDF
:1039E000244A02F0E5FE431E98412300AB331870D1
:1039F0002300053F70331D70012F26D80B2E24D8CD
:103A000023000C227C331A802300009A7E331A7024
:103A10002300194A7F3312781A702300019A8033E9
:103A20001A702300039A813398341A70FFF744FB0D
:103A30002078431E9841C0B2FFF7D8FD200001F066
:103A4000C7F8074801F014F960E7034B7C331E8088
:103A5000DAE7C046EC0500204C0600200418000000
:103A6000BC0600204A940000FF01000052940000B0
:103A700047613040E17A14AEBC000020F0B50E0082
:103A800085B0002804D0012848D0002005B0F0BD42
:103A9000594F3B00753318783B0072331B88C008C0
:103AA000C01804F0ADFE3B0077331B780022002BDA
:103AB0002FD0524B03F000F9040030000D0004F049
:103AC0009FFE02000B002000290003F0F5F83B00E8
:103AD00079331B780022022B1DD0002303F0ECF871
:103AE0000022474B04F058F89C37040038680D005A
:103AF00004F0B6FE02000B002000290003F046FC93
:103B00000022404B04F048F802F002FD02F0A2FE51
:103B1000BCE70023CEE78023DB05DFE7364C7600E9
:103B20002300A8331D782300A93318782900FFF754
:103B3000B1FD2300009001917C33188804F060FEF1
:103B40000022314B03F0B8F8009A019B04F024F8EE
:103B50002300029003918033701B1E7823007E3374
:103B60001A780730B600801914238000012A00D08B
:103B70000023C01A04F044FEAB34060020780F0086
:103B8000431E98414000281A800004F039FE0200CC
:103B90000B003000390003F0F9FB02F099FB164BE3
:103BA0000400AA33187803230D001840043004F0F1
:103BB00027FE22002B0003F0EFFF00220023040069
:103BC0000D0002F0EBFD002801D1002400250022A9
:103BD000200029000A4B03F06FF8009A019B03F0C4
:103BE000DBFF029A039B03F067F8084A084B03F0D7
:103BF00063F802F0F9FB89E74C0600200000F03F73
:103C00000000204000408F40000011402B8716D953
:103C1000CEF7EF3F10B503681B6A984710BD000050
:103C200010228256074BD2009B18DA889B8800200E
:103C30009A4205D0981A9A4202D39B1A581CFF3018
:103C40007047C0463C0600201023C3560649DB00DF
:103C5000C818C2888088904202D05B58985C704730
:103C600001204042FBE7C0463C060020102310B56F
:103C7000C3560948DB00C218D18894888C4207D00B
:103C800018584B1C9BB2D380DBB2405CD38010BD74
:103C900001204042FBE7C0463C0600207047000080
:103CA00070B5FF2502F084F8002814D00C4CA388CE
:103CB000E28801332B4093420AD002F03DF9A388F9
:103CC0005A1CA2802268D054A3882B40A380E9E725
:103CD00002F032F9E6E70422024B1A6070BDC046DA
:103CE0003C060020C00F254070B5FF2502F07EF98C
:103CF000002814D00C4CA389E28901332B40934255
:103D00000AD002F01BFAA3895A1CA281A268D054DF
:103D1000A3892B40A381E9E702F010FAE6E7042229
:103D2000024B1A6070BDC0463C060020C00F284000
:103D3000030010B51B7C08005BB2002B03D102F01E
:103D40004FF8012010BD02F069F9FAE7F8B5060056
:103D500015000C008F18A7420BD01023F3562078C3
:103D6000002B03D102F03CF80134F4E702F056F9DD
:103D7000FAE72800F8BD10B504001C2102F03DFA56
:103D8000200010BD102210B582560C4BD1005B18DC
:103D9000002159608A4208D102F012F802F02EF890
:103DA0000028FBD102F032F810BD02F027F902F032
:103DB00043F90028FBD102F047F9F5E73C06002063
:103DC00000234360C360FA239B008360034B0833E6
:103DD000036001235B42017403837047D8950000A0
:103DE000F7B5050010242C5708000899002C05D1C0
:103DF000002B03DA002907DB2000FEBD0024182B6E
:103E0000FAD11929F8D12C74324B00212B831306D7
:103E10001B0F160A022B03D03031002B00D11039B2
:103E2000541E0722A02314400C431B032343019379
:103E30000F23013E1E40802368611B061E4302F0D3
:103E4000FFFE011C244802F0EFFD244902F0ECFDC6
:103E500004F02CFD0022224B02F02EFF214B002209
:103E600004F006F902F0F6FC1023EB560702002BD3
:103E70001FD1FFF7DFF81C4B019A1F601B4B1A6024
:103E80001B4B1E601B4B1C601B4B10240022802010
:103E90001E602C57194EE50073195A60400004F05B
:103EA000B7FD7051002C11D1154801F067FF0124B6
:103EB000A2E702F0DBF9134B019A1F60124B1A6064
:103EC000124B1E60124B1C60124BDEE7124802F0D0
:103ED00073F8ECE718190000001B374C0000504144
:103EE0000000E03F0000F03F100301404800254083
:103EF0000003254044002540000225403C060020E8
:103F0000A13C00001C030140480028400003284059
:103F10004400284000022840E93C000070B50B4CEA
:103F200000212000FFF74CFF094E0A4D3200290006
:103F3000200002F05BF9084C01212000FFF740FF50
:103F400032002900200002F051F970BD0406002063
:103F5000B80000209D3C00002006002037B5012558
:103F6000002401950095002306222321094800F032
:103F7000C3F92A002300272107480194009400F088
:103F8000BBF92A002300262104480194009400F084
:103F9000B3F937BDB00600205806002064060020A3
:103FA00010B5030003220121014800F0AEF910BD55
:103FB000640600200220704737B50024114D062109
:103FC0002878FEF7F7FC142000F057FF23002800A4
:103FD00006222F210194009400F08EF9282000F091
:103FE0004CFF0123062228002F2101930094230077
:103FF00000F082F9142000F040FF28782100FEF73D
:10400000D9FC37BD4C06002010B5034800F085F9F7
:104010000128FAD010BDC0465806002070B572B60F
:104020000A4C0021200000F074F9094DC02128003D
:1040300000F082F90021280000F07EF90121200023
:1040400000F067F9FFF7E0FF62B670BDB006002030
:1040500088060020F7B515000C00019000F058FB11
:104060000E4E0021300000F054F96B460C4F998839
:10407000380000F061F96519AC4209D10121300026
:1040800000F047F9019B842B01D0FFF7BDFFF7BD7E
:104090002178380000F050F90134EDE7B006002037
:1040A00088060020F8B5060015000C0000F030FB73
:1040B0000F4F0021380000F02CF9B1B20D4E6519F8
:1040C000300000F039F90021300000F035F9AC4241
:1040D00006D13800012100F01CF9FFF795FFF8BD6B
:1040E0000021300000F028F920700134EFE7C046CD
:1040F000B006002088060020F7B505000C000192EC
:1041000000F006FB114F0021380000F002F9104EBC
:104110000D21300000F010F9290A300000F00CF9F0
:10412000E9B2300000F008F9019BE518AC4206D175
:104130003800012100F0EDF8FFF766FFF7BD2178A8
:10414000300000F0F9F80134F0E7C046B006002076
:104150008806002007B56B46D97107330122190084
:10416000FFF7CAFF07BD0000F7B505000C0001927C
:1041700000F0CEFA134F0021380000F0CAF8124EBA
:104180001D21300000F0D8F8290A300000F0D4F8E2
:10419000E9B2300000F0D0F80021300000F0CCF897
:1041A000019BE518AC4206D13800012100F0B1F8BE
:1041B000FFF72AFFF7BD0021300000F0BDF82070A6
:1041C0000134EFE7B00600208806002013B56B46E7
:1041D000DC1D01222100FFF7C7FF207816BD00007B
:1041E000F7B515000C00019000F092FA0F4F002176
:1041F000380000F08EF80E4E0E21300000F09CF8D2
:104200006B463000998800F097F86519AC4206D1EA
:104210003800012100F07DF8FFF7F6FEF7BD2178A8
:10422000300000F089F80134F0E7C046B006002005
:1042300088060020F7B515000C00019000F068FA20
:10424000114F0021380000F064F8104E1E2130009C
:1042500000F072F86B463000998800F06DF800218C
:10426000300000F069F86519AC4206D13800012130
:1042700000F04FF8FFF7C8FEF7BD0021300000F056
:104280005BF820700134EFE7B006002088060020BC
:1042900010B5042100F042FC10BD022070477047A9
:1042A000704772B6704762B67047000010B500F0F4
:1042B00039F8FEF749FEFEF7BDFDFEF75BFC0D4B3E
:1042C000062118601A20FEF775FB01211A20FEF75F
:1042D0007FFB01211B20FEF76DFBFFF73FFE0A204D
:1042E000FEF744FCFFF768FE0A20FEF73FFC00F0F3
:1042F00099FA10BD9C04002037B506AC2478079DC0
:104300000094019501F045FF37BD10B501F030FF75
:1043100010BD10B501F033FF10BD10B501F048FF1E
:1043200010BD000010B501F07BFC0022014B1A60AB
:1043300010BDC0460003014010B50C0001F0F8FCB0
:104340000028FBD12000F62401F0E4FCFF3401F04A
:10435000D9FC002803D001F0CFFC80B203E0013C7F
:10436000002CF4D1004810BDFFFF000010B5002163
:104370003220FEF71FFB074A074913680B40136002
:1043800000F0FBFF2021054A13688B43136000F007
:10439000F8FF10BD00060240FFF7FFFF00002040BD
:1043A00010B500213420FEF705FB074A07491368C2
:1043B0000B40136000F0E1FF4021054A13688B4376
:1043C000136000F0DEFF10BD00060240FFFFF7FFA4
:1043D0000000204070B505000C00081E07D004F056
:1043E00065FC2B68020021002800DB68984770BD3F
:1043F0000EB40021F0B592B017AB20CB06002A0016
:1044000008000093019304F083FC02AC471C3F2892
:1044100003D9380001F0F9FE04002A003900009B9E
:10442000200004F075FC3368050002002100300014
:10443000DB6898473F2D02D9200001F0E2FE2800FA
:1044400012B0F0BC08BC03B0184710B5FFF7C2FFAC
:1044500010BD10B503689B68984710BD10B50249A0
:10446000FFF7B8FF10BDC046F793000070B5040019
:10447000FFF7B0FF05002000FFF7F0FF401970BD07
:10448000F0B58BB06B461400002205330600DA77D6
:10449000012C00D80A2409AD0F002100380002F0D9
:1044A000C7F803006343FB1ADBB21A00373201007E
:1044B000D2B2092B01D83033DAB2013D2A70BC42A6
:1044C000EAD929003000FFF785FF0BB0F0BDF8B541
:1044D00007000D00161E04D10368C9B29B689847F7
:1044E000F8BD0A2A0CD100290BDA2D21FFF7B1FF04
:1044F0003200040069423800FFF7C2FF2018EFE7DE
:10450000D2B229003800FFF7BBFFE9E770B504001D
:10451000FFF7DDFF05002000FFF7A0FF401970BD89
:1045200010B50400FEF726FBE060236820005B69FD
:104530009847002808DAFEF71DFBE368C01AA36855
:104540009842F2D30120404210BDF8B506000D009C
:1045500017000024BC4207D03000FFF7E1FF00281D
:1045600002DB28550134F5E72000F8BD70B50D00D9
:104570000749040000F060F82800FFF7D1FF002889
:1045800004DBC1B2200000F083F8F5E7200070BD25
:10459000F993000010B504000068002801D004F071
:1045A00041FA002323606360A36010BD0F23103124
:1045B00070B59943040000684E1E04F009FB051E07
:1045C0000CD0A368B3420AD26068B04204D2321A57
:1045D0000021281804F04CFA012060C470BD0023AB
:1045E0008355A660F8E7036810B50400002B04D0DB
:1045F00043688B4201D3012010BD2000FFF7D6FF96
:104600000028F9D0A368002BF5D122681370F2E7D7
:1046100070B50E00110004001500FFF7E4FF00283C
:1046200004D12000FFF7B6FF200070BD31002068E4
:10463000A56004F033FBF7E7002370B504000D001C
:10464000036043608360994207D0080004F02EFBAA
:10465000290002002000FFF7DBFF200070BDF8B545
:1046600004000E1E02D100273800F8BD0127002AE1
:10467000FAD08368D5182900FFF7B5FF0028F2D0DB
:104680002368A2683100981804F008FBA560EBE7E6
:1046900007B56B466A461971002301A953710122BF
:1046A000FFF7DDFF0EBD000010B5040000F065FE51
:1046B000C021044AA40113688B432343136000F014
:1046C00060FE10BD04E400E010B51024044B1C6033
:1046D000044B18650220FFF7E7FF034B1C6010BD79
:1046E00080E100E00000002000E100E01022014B2A
:1046F0001A60704780E100E0014B1878C0B2704743
:1047000001070020014B18707047C04601070020C8
:1047100010B5074B1A78002A02D01B78062B03D15C
:10472000FFF77CFCFFF7BBFDFFF76EFC10BDC0463A
:104730000107002010B50A0001000020FFF750FD1E
:1047400010BD000070B50D4B05001C78002C03D087
:10475000012C0CD0002070BDD823DB00E018295DAF
:1047600080B20134FFF7F6FC082CF5D1F2E70178AE
:10477000E820C000FFF7EEFCECE7C046020700208F
:1047800007B5064B01A91B7840BA0880002B03D15E
:1047900002220348FFF7B0FC07BDC0460207002015
:1047A000BC06000007B5064B01A91B7840BA08807B
:1047B000002B03D102220348FFF79EFC07BDC04631
:1047C00002070020BE06000010B50C4B04001B7849
:1047D000002B11D1D720C000FFF7F8FC0123210ADC
:1047E000984319400143D720C9B2C000FFF7B2FC7B
:1047F0000348E1B2FFF7AEFC10BDC046020700203F
:10480000B906000013B501AC2070FFF749FD012285
:1048100021008420FFF71EFC0022014B1A7013BDFB
:104820000107002010B50420FFF7ECFF0220FEF77F
:104830009DF910BD07B56B460122D871D91D8020A6
:10484000FFF708FC6B46DA79034B002A02D10132EC
:104850001A7007BD0222FBE70107002007B50422FA
:10486000064B01A91A70030C0B708870030A013AF9
:1048700083204B70FFF7EEFB07BDC0460107002009
:1048800010B51400FFF756FF2000FFF7E7FF10BD3B
:1048900007B50522064B01A91A70030C0B7088702E
:1048A000030A023A82204B70FFF7D4FB07BDC046D3
:1048B0000107002013B505220400084B9621084883
:1048C0001A70FFF747FC01A9230C0B700322230A7F
:1048D00082204B708C70FFF7BDFB13BD01070020D9
:1048E000AC08000007B56A46030C1370030A537046
:1048F0000B0C49BA9070D3709180942006226946BF
:10490000FFF7A8FB0622014B1A7007BD0107002024
:10491000002210B51100C520FFF79CFB0722014BB8
:104920001A7010BD01070020002210B51100D1201F
:10493000FFF790FB10BD07B56B460122D91D08702B
:104940009F20FFF787FB07BD07B56B460122D91DE6
:104950000870A020FFF77EFB07BD07B56B4601225C
:10496000D91D08709620FFF775FB07BD07B501A993
:10497000087001228920FFF76DFB07BD07B50F4BBB
:1049800001A9984206D90E4B0B8002229820FFF70E
:1049900061FB07BD0B4B984201D90B4BF4E70B4B66
:1049A000984201D90A4BEFE70A4B984201D90A4BCA
:1049B000EAE70A4B9842E8D9094BE5E700E9A43554
:1049C000E1E9FFFF80F8A932D7D8FFFF8044E52D49
:1049D000C1C5FFFF000B6B1B7581FFFF40FC541925
:1049E0006B6F000013B501AC20706170A2702100E4
:1049F00004229520E370FFF72DFB13BD13B56C4621
:104A000052BAA280082240BA49BA208061805BBABB
:104A100069461000E380FFF71DFB13BD07B50222B6
:104A2000122001A9FFF73EFB6B466A461B795079BD
:104A30001B0218430EBD07B56B460122D91D087035
:104A40009D20FFF707FB07BD07B50B00072201A953
:104A500010401A0C5BBA08704A70972004224B80F1
:104A6000FFF7F8FA07BD000010B50400FFF7A4FA3D
:104A70002000FFF795FAFFF7D1FA0020FFF7DAFEE2
:104A80000A4B1B78002B08D0FFF794FA8101022013
:104A9000FFF7DAFF7F20FFF769FF0120FFF7CBFF69
:104AA0000122034B00201A7010BDC046BD0000203B
:104AB0000107002037B50D4D04002B78002B03D1E2
:104AC000FFF75CFF01232B70200003F0C9FE084BA9
:104AD000002202F05BFC01F0BDFE00BA019004224E
:104AE000862001A9FFF7B6FA37BDC04600070020AF
:104AF0008084EE3F07B56B46D91D044B08701870D3
:104B000001228A20FFF7A6FA07BDC046020700204F
:104B1000014B18787047C0460207002037B50500E2
:104B200000200C00FFF7B9FB0200012822D103008E
:104B300000210F2D15D10620FFF754FF2B1C5AB270
:104B40000E2A00DD0E2318215DB21E48FFF702FB7E
:104B50006B4602228E2001A91D715C71FFF77AFA63
:104B600037BD0420FFF73EFF2B1CEA1CE7DA164B8B
:104B70001B78E4E7154B187802281AD0032806D0D2
:104B800001281AD1030000220521032003E002219D
:104B9000012300220800FFF725FF2B1CEA1C01DA85
:104BA000094B1B785AB2162A00DD162338215DB254
:104BB000CBE7012300220321EDE701230022072197
:104BC0000420E8E7E70800000C960000F806002043
:104BD00013B5040008226846204903F02DFF204B3E
:104BE00020781B78834201D0FFF784FF2378002BC5
:104BF00002D0012B2DD013BD606803F031FE0200FE
:104C00000B000020174902F0C1FB0022164B02F0F6
:104C1000C3FF01F01FFE6A46030C1370030A907075
:104C20005370237BA068D370637B137103F018FE6D
:104C300000220E4B02F0AAFB01F00CFE6A46030CA8
:104C400040BA5371D080082269468B20FFF702FAE0
:104C5000D1E7236904220093F6E7C0460D960000D1
:104C60000207002080847E41000040408084EE3FA7
:104C700030B50400224985B001AD09222800083171
:104C800003F0DAFE1F4B20781B78834201D0FFF738
:104C900031FF2378002B03D0012B28D005B030BD85
:104CA000637AF12B19D11848FFF76AFD1748FFF70F
:104CB00079FD02236288A18852BA2A80227A69800B
:104CC000AA710922E188EB71A37AA9802B722900CD
:104CD0008C2092B2FFF7BEF9E0E7F22BEAD10C4844
:104CE000FFF74EFD0B48FFF75DFD0623E2E7A389C2
:104CF00006225BBA2B80E3896B80238AAB80E6E7D0
:104D00000D96000002070020FFFF00000580000054
:104D10000F1D00002110000037B56D46069CEB709A
:104D2000230C28706970AA702B716946230A05222A
:104D300088206B71AC71FFF78DF90722014B1A7057
:104D400037BDC0460107002007B56B460222187127
:104D500059718F2001A9FFF77DF907BD13B501AC8B
:104D6000012221001520FFF79DF9207840424010D4
:104D700016BD000037B504000D000222132001A962
:104D8000FFF790F90B4B1B78012B0ED10A48FFF768
:104D90001DFAC009C0B2012807D10848FFF716FA6A
:104DA00020706B465B792B7037BD6B461B79237087
:104DB000F7E7C046020700200407000002070000D2
:104DC000F7B50C006B4600270500D91D2000160022
:104DD000DF71FFF7CFFF22780120B24205D86B4682
:104DE0002900D879FFF726FA3800FEBD37B5040050
:104DF00001AD032229001420FFF754F9184B1A784B
:104E00002270002A09D0012A13D014220021200088
:104E100003F02EFE0F2323700AE02B78A26023718B
:104E20006B785B425B10A371AB785B425B10637184
:104E300037BD01222B78AA565B425B1023736B7837
:104E4000002A09DB9B086373AB785B425B10A3739A
:104E5000044B1B682361EBE7013BFF3B9B10F2E730
:104E600002070020FC06002007B5022201A940BA73
:104E700008801000FFF7EEF807BD10B500F040FD08
:104E800010BD0000064B07481A6810B55043064A8B
:104E900006498018186001F051FC080010BDC0469A
:104EA000C00000206D4EC64139300000FFFFFF7F7B
:104EB00010B5FFF7FBF9FDF70DFBFDF775FBFCE700
:104EC000EFF3108072B6704780F310887047044883
:104ED00004490160704702480249016070470000C0
:104EE00004ED00E000000010030010B50800002BE6
:104EF0000AD01968002A04D108701A6801321A60B1
:104F000001E09142F8D310BD00F06AFFFBE7F7B56E
:104F10001400002206002027019194420ADD019925
:104F2000895C00290BD1A2420BDAA41A20279A0728
:104F300000D510370025DB0711D4250009E0013228
:104F4000EDE70C00F2E739003000089AFFF7CCFFDC
:104F5000013D002DF7DCE543ED172540641B00956E
:104F600006E03000089AFFF7BFFF009B0133009373
:104F7000019B009A5B1B995C0029F2D12500002D52
:104F800005DCE043009BC0172040C018FEBD39007F
:104F90003000089AFFF7A8FF013DF0E7F0B58BB0AD
:104FA0001900159B07001000002B10D11D000300F5
:104FB00014000B430DD1303305A90B80169B38002C
:104FC0000093129A139BFFF7A2FF0BB0F0BD0B00EA
:104FD000ECE7119B002B0CD0109B0A2B34D100293D
:104FE00032DA159B002544428D41002B2DD1159DB1
:104FF000444200221F2605ABDA7402ABF618109B60
:10500000DB170293149B3A3B039323002B431ED1DF
:10501000119B002B0DD0129B002B37D0139B9B07AD
:1050200034D52D213800169AFFF75EFF129B013B05
:105030001293169B310000933800139B129AFFF7CE
:1050400066FF119BC018C0E700231193D1E7159BA1
:10505000002B15D020002900109A029B01F0B2FB12
:10506000092A01DD039BD2183032013E20002900BD
:105070003270029B109A01F0A5FB04000D00C4E7FA
:105080002000109901F05AFB0A00E9E72D23013EA8
:10509000337000231193CCE7F0B5140000228FB0D9
:1050A00007000D000992934203D00268013BD31818
:1050B0000993002657E0252B00D0CFE06A78002A1C
:1050C00054D06B1C252A00D1C7E000202D2A01D125
:1050D000AB1C01301D002B78302B17D000239C46D1
:1050E0002B7819003039CAB2092A13D9732B18D179
:1050F00023685E490434002B00D01900099B6246E6
:10510000009303003800FFF702FF2AE00223013575
:105110001843E0E762460A235A438B189C46013540
:10512000DEE76C2B3FD16B786C2B1BD1AB78642BFB
:1051300024D15D3B07349C430CCC0A920B93612332
:105140000493634609990293069101210A230235CB
:1051500005910390019100930A9A0B9B3800FFF789
:105160001DFF361801352B78002BA4D1002F02D05B
:1051700000223B681A7030000FB0F0BD752BF1D1E2
:1051800009996E3B07349C430CCC06910121059193
:105190006031049161460291002102350191039032
:1051A0000A310091DAE7642B01D0692B0FD10999FC
:1051B00022680691002105916131049161460291B6
:1051C000012104340191D31703900931E9E7782BC9
:1051D00011D122680999D317069100210A936123FE
:1051E00004340591049363460191103103900293B6
:1051F00000910A9BB2E7582B09D1099922680691C0
:105200000021D3170A93043441230591EAE7752B53
:1052100010D122680999D3170A9361230493634636
:105220000691029300210A23043405910390019111
:105230000093DEE7632B95D12421236804AA52183A
:1052400013700023013104AA52181370099B62469F
:105250000093043403000DA954E71D003800297899
:10526000099AFFF741FE01367CE7C0461E96000012
:105270000EB40FB505AA02CA0190002301A803923B
:10528000FFF70AFF04B008BC03B0184710B503F0DD
:1052900095FB03680C2B00D1FEE7FEE710B5C0B20A
:1052A00000F02CFBFEE70000030010B58024084945
:1052B000084A08686401C3189A1AA24201DC0B600C
:1052C00010BD03F07BFB0C23036001204042F7E795
:1052D000C400002058070020F8B500240E490F4BE9
:1052E000002904D103F070FBFFF7E2FDFEE7002286
:1052F0001F6858689E688518B24206D10022D86897
:10530000824206D110330139EAE7BD588550043294
:10531000F1E7AC500432F3E7010000001C980000F4
:10532000002370B50B480C4C0C4D21009A00032B48
:1053300000D8A958013381502C2BF6D1FCF774FF0B
:10534000074B1A68002A00D11A608022054B92058B
:105350001A6070BD000000208D5200000022000085
:10536000B000002008ED00E00230800803D00130DA
:105370000238FCD1C046C0467047EFF3108072B6C9
:10538000704780F31088704770B50400FFF7F5FF91
:105390000500102C08D803210F4A13688B431360B3
:1053A0002800FFF7EEFF70BD202C08D803220A4921
:1053B0000B6893431A00012313430B60F0E7302C72
:1053C00006D8032204490B6893431A000223F3E72B
:1053D000002000F093FAE3E73000104001220220A1
:1053E0000A4B196891431960196881431960084B89
:1053F0002E301968814308001021014307201960ED
:10540000196881430A431A607047C0460000224071
:10541000000F224010B5FFF7E1FF8023024A1B0670
:1054200011680B43136010BD00002240014B186847
:10543000C00F704700002240014B024A1A607047BB
:10544000380003406588EDAC70B5154E0400336834
:10545000144D9B0F9B07984215D003222B687C208C
:1054600093432B6033689B0F00D0903000F01CFBFF
:10547000FFF783FF3368A40F9B009B08A4071C431E
:105480003460FFF77EFF03222B6893431A003368D2
:105490009B0F59424B41013313432B6070BDC046F3
:1054A0000C0222401402224010B50400022802D946
:1054B000002000F023FA044BE40018680134E040B7
:1054C0000123184010BDC0461002224070B50500EF
:1054D0000C00022802D9002000F010FA012C02D999
:1054E000002000F00BFA2800FFF7DEFF00280AD1A9
:1054F00001210800ED00A8400C40AC40024A1368AE
:1055000083431C43146070BD0C02224070B504003C
:105510000D00012802D9002000F0F0F92000FFF76B
:10552000C3FF002809D10122E4000234A240A540B3
:10553000024B196891430D431D6070BD0C0222405F
:105540000C4B1A6802431A60C20703D5022219687D
:105550001142FCD0C20504D5802292001968114284
:10556000FCD0C20304D58022920219681142FCD0FB
:105570007047C046100222400C4B1A6882431A60E2
:10558000C20703D5022219681142FCD1C20504D515
:105590008022920019681142FCD1C20304D58022F6
:1055A000920219681142FCD17047C0461002224095
:1055B0000949020008680B6809685B0A4008034350
:1055C000490C0B43DB0705D4044B05491868084018
:1055D000104318607047C046100222400C0222405F
:1055E000F7F7FFFF70B504000E00012802D9002074
:1055F00000F084F90C4DC9202B689B0F00D06C384B
:1056000000F052FA094A2401A240A640084B432068
:1056100019689143314319602B689B0F00D02438DF
:1056200000F042FA70BDC0460C022240FFFF0000AD
:1056300008022240074B1B689B0309D4064A07490E
:10564000136800060B40F821490508401843106014
:105650007047C046100222400C022240FFFFFFE0CC
:1056600010B5012807D0022809D000280AD1084B1C
:10567000186880B210BD064B1868000CFAE7054B9D
:105680001868F7E7002000F039F90020F2E7C0467B
:10569000000222400402224010B50400FFF76DFE14
:1056A000054A064913680B4005490C402343136023
:1056B0001368FFF766FE10BD10022240FBFBFBFFE4
:1056C0000404040010B5022804D8054A8300985841
:1056D000995010BD002000F011F90020F9E7C046F4
:1056E0000407002010B502280BD80849084B800099
:1056F0000A68C3589A430A60064A11680B4313604C
:1057000010BD002000F0FAF8FAE7C04610070020AC
:1057100028960000C800002010B5022807D8064AC5
:1057200006498000136841588B43136010BD002068
:1057300000F0E4F8FAE7C046C80000202896000010
:10574000042370B5374C22681A4221D036490A68C2
:105750001A421AD0354A156808681D40A8430860E7
:105760001168334D99432B681160002B0DD0012136
:105770002120FDF71FF92F4B1B78002B03D00221AE
:105780001920FDF717F92B6898470420FFF784FFCD
:1057900080252368ED002B4223D0234A13682B4237
:1057A0001BD0224B186811682840814311601A6889
:1057B00021491F4D0A401A606B68002B0DD0012152
:1057C0002120FDF7F7F81B4B1B78002B03D002219B
:1057D0001920FDF7EFF86B6898478020C000FFF7AD
:1057E0005BFF80232268DB021A4219D00E4A12683E
:1057F0001A4211D00E4CA368002B0DD0012121209C
:10580000FDF7D8F80B4B1B78002B03D00221192091
:10581000FDF7D0F8A36898478020C002FFF73CFF4F
:1058200070BDC04610022240C800002010070020B2
:105830000407002098040020FFFBFFFF044B054AEB
:10584000196810400843186019681142FCD170476C
:105850001002224008080800024A034913680B405E
:105860001360704700002240FFFFFFBF024B186823
:105870004000C00F7047C046000022401B2800D9DE
:1058800001BE034B8000C318186819607047C046FA
:1058900040000020F8B504000D00032900D901BE26
:1058A0001B2C00D901BE032726003E40BE40063611
:1058B000B740B540FFF761FDA408054BA400E4180C
:1058C0002168B9430D432560FFF75BFDF8BDC04675
:1058D00000E400E01F2318401E3B8340014A136090
:1058E0007047C04600E100E01F2318401E3B834084
:1058F000014A13607047C04680E100E001BE704776
:1059000070B5802504002D02AC4205D8064B1868FE
:105910006043FFF729FD70BD044B1868FFF724FDB5
:10592000034BE418F0E7C046D4000020CC00002070
:105930000080FFFF37B5FFF779FD002832D0FFF771
:105940001CFD1C21204B80251A68204B92001B68EF
:105950000A408B4018329B0FDA401D4904000B6847
:105960001C48ED0118401C4B53435B19DB0B013BFA
:105970000343192A17D8194A1343194D0B602B6892
:1059800030200193FFF700FD8023164ADB051168E4
:1059900014200B431360FFF7B3FF019B20002B6023
:1059A000FFF7EFFC37BD1048101805780F48821834
:1059B0001A3A12785219FF2A00D9FF22920513438E
:1059C000A0225203D8E7C046080F03402800034036
:1059D0000800224000F800C040420F000000D43F01
:1059E00030001040000022404DF3FF0F34960000BD
:1059F000F7B50600183E0400182E03D8234BF340D9
:105A0000DB0701D401BEF7BDFFF7B7FC0190FFF73C
:105A10002DFF0090002803D0FFF71EFF0123009305
:105A200007277F201A4D1B4A2B681B49BB432B605D
:105A30001A4BE3181B78DBB21360194A1368BB4397
:105A40001360184A0B68A21812788343024013436C
:105A50000B604D38FFF788FC182C0ED028681C3CD2
:105A6000A408B8433C4004432C603220FFF77CFC80
:105A70002B68B608BB431E432E60009B012B01D14F
:105A8000FFF758FF0198FFF77CFCBCE711111101EB
:105A9000080F03400C0F0340180F03404DF3FF0F96
:105AA000100F034034F3FF0F10B5034B1B7858431E
:105AB000FFF75AFC10BDC046D800002010B50024E6
:105AC0000C4B0D4A1C605C609C60DC601C610B4BE5
:105AD0001A6004230A4A11680B43FA211360094B28
